{
  "address": "0xA3db82873125a5578180Ba9F82F3865d4E4971D1",
  "abi": [
    {
      "inputs": [],
      "stateMutability": "nonpayable",
      "type": "constructor"
    },
    {
      "anonymous": false,
      "inputs": [
        {
          "indexed": true,
          "internalType": "address",
          "name": "previousOwner",
          "type": "address"
        },
        {
          "indexed": true,
          "internalType": "address",
          "name": "newOwner",
          "type": "address"
        }
      ],
      "name": "OwnershipTransferred",
      "type": "event"
    },
    {
      "inputs": [
        {
          "internalType": "address",
          "name": "target",
          "type": "address"
        },
        {
          "internalType": "bytes",
          "name": "data",
          "type": "bytes"
        }
      ],
      "name": "forwardCall",
      "outputs": [],
      "stateMutability": "nonpayable",
      "type": "function"
    },
    {
      "inputs": [],
      "name": "owner",
      "outputs": [
        {
          "internalType": "address",
          "name": "",
          "type": "address"
        }
      ],
      "stateMutability": "view",
      "type": "function"
    },
    {
      "inputs": [],
      "name": "renounceOwnership",
      "outputs": [],
      "stateMutability": "nonpayable",
      "type": "function"
    },
    {
      "inputs": [
        {
          "internalType": "address[]",
          "name": "addresses",
          "type": "address[]"
        }
      ],
      "name": "revokeCallers",
      "outputs": [],
      "stateMutability": "nonpayable",
      "type": "function"
    },
    {
      "inputs": [
        {
          "internalType": "address[]",
          "name": "addresses",
          "type": "address[]"
        }
      ],
      "name": "setCallers",
      "outputs": [],
      "stateMutability": "nonpayable",
      "type": "function"
    },
    {
      "inputs": [
        {
          "internalType": "address",
          "name": "newOwner",
          "type": "address"
        }
      ],
      "name": "transferOwnership",
      "outputs": [],
      "stateMutability": "nonpayable",
      "type": "function"
    },
    {
      "inputs": [],
      "name": "withdrawEth",
      "outputs": [],
      "stateMutability": "nonpayable",
      "type": "function"
    },
    {
      "inputs": [
        {
          "internalType": "address",
          "name": "token",
          "type": "address"
        }
      ],
      "name": "withdrawToken",
      "outputs": [],
      "stateMutability": "nonpayable",
      "type": "function"
    }
  ],
  "transactionHash": "0x388d3cdd645372472cf82b02d2282186131b316be9aa9cc55fa3abeab6a5bb9a",
  "args": [],
  "numDeployments": 1,
  "solcInputHash": "b7674c88e906a4f58e2570c95eb9901d",
  "bytecode": "0x608060405234801561001057600080fd5b5061001a3361001f565b61006f565b600080546001600160a01b038381166001600160a01b0319831681178455604051919092169283917f8be0079c531659141344cd1fd0a4f28419497f9722a3daafe3b4186f6b6457e09190a35050565b61081f8061007e6000396000f3fe608060405234801561001057600080fd5b50600436106100885760003560e01c8063894760691161005b57806389476069146100d05780638da5cb5b146100e3578063a0ef91df14610102578063f2fde38b1461010a57600080fd5b806322bee4941461008d57806343ded848146100a2578063715018a6146100b557806378ff96bb146100bd575b600080fd5b6100a061009b36600461060a565b61011d565b005b6100a06100b03660046106b0565b610186565b6100a06101f9565b6100a06100cb3660046106b0565b61020d565b6100a06100de36600461075d565b61027d565b600054604080516001600160a01b039092168252519081900360200190f35b6100a06103af565b6100a061011836600461075d565b6103f4565b610125610486565b816001600160a01b03168160405161013d919061077f565b6000604051808303816000865af19150503d806000811461017a576040519150601f19603f3d011682016040523d82523d6000602084013e61017f565b606091505b5050505050565b61018e6104e5565b60005b81518110156101f55760018060008484815181106101b1576101b16107ba565b6020908102919091018101516001600160a01b03168252810191909152604001600020805460ff1916911515919091179055806101ed816107d0565b915050610191565b5050565b6102016104e5565b61020b600061053f565b565b6102156104e5565b60005b81518110156101f557600060016000848481518110610239576102396107ba565b6020908102919091018101516001600160a01b03168252810191909152604001600020805460ff191691151591909117905580610275816107d0565b915050610218565b6102856104e5565b6040516370a0823160e01b815230600482015281906000906001600160a01b038316906370a082319060240160206040518083038186803b1580156102c957600080fd5b505afa1580156102dd573d6000803e3d6000fd5b505050506040513d601f19601f8201168201806040525081019061030191906107f9565b9050816001600160a01b0316639bd9bbc66103246000546001600160a01b031690565b6040517fffffffff0000000000000000000000000000000000000000000000000000000060e084901b1681526001600160a01b039091166004820152602481018490526060604482015260006064820152608401600060405180830381600087803b15801561039257600080fd5b505af11580156103a6573d6000803e3d6000fd5b50505050505050565b6103b76104e5565b600080546040516001600160a01b03909116914780156108fc02929091818181858888f193505050501580156103f1573d6000803e3d6000fd5b50565b6103fc6104e5565b6001600160a01b03811661047d5760405162461bcd60e51b815260206004820152602660248201527f4f776e61626c653a206e6577206f776e657220697320746865207a65726f206160448201527f646472657373000000000000000000000000000000000000000000000000000060648201526084015b60405180910390fd5b6103f18161053f565b3360009081526001602052604090205460ff1661020b5760405162461bcd60e51b815260206004820152601a60248201527f63616c6c6572206973206e6f742061207365742063616c6c65720000000000006044820152606401610474565b6000546001600160a01b0316331461020b5760405162461bcd60e51b815260206004820181905260248201527f4f776e61626c653a2063616c6c6572206973206e6f7420746865206f776e65726044820152606401610474565b600080546001600160a01b038381167fffffffffffffffffffffffff0000000000000000000000000000000000000000831681178455604051919092169283917f8be0079c531659141344cd1fd0a4f28419497f9722a3daafe3b4186f6b6457e09190a35050565b80356001600160a01b03811681146105be57600080fd5b919050565b634e487b7160e01b600052604160045260246000fd5b604051601f8201601f1916810167ffffffffffffffff81118282101715610602576106026105c3565b604052919050565b6000806040838503121561061d57600080fd5b610626836105a7565b915060208084013567ffffffffffffffff8082111561064457600080fd5b818601915086601f83011261065857600080fd5b81358181111561066a5761066a6105c3565b61067c601f8201601f191685016105d9565b9150808252878482850101111561069257600080fd5b80848401858401376000848284010152508093505050509250929050565b600060208083850312156106c357600080fd5b823567ffffffffffffffff808211156106db57600080fd5b818501915085601f8301126106ef57600080fd5b813581811115610701576107016105c3565b8060051b91506107128483016105d9565b818152918301840191848101908884111561072c57600080fd5b938501935b8385101561075157610742856105a7565b82529385019390850190610731565b98975050505050505050565b60006020828403121561076f57600080fd5b610778826105a7565b9392505050565b6000825160005b818110156107a05760208186018101518583015201610786565b818111156107af576000828501525b509190910192915050565b634e487b7160e01b600052603260045260246000fd5b60006000198214156107f257634e487b7160e01b600052601160045260246000fd5b5060010190565b60006020828403121561080b57600080fd5b505191905056fea164736f6c6343000809000a",
  "devdoc": {
    "kind": "dev",
    "methods": {
      "owner()": {
        "details": "Returns the address of the current owner."
      },
      "renounceOwnership()": {
        "details": "Leaves the contract without owner. It will not be possible to call `onlyOwner` functions anymore. Can only be called by the current owner. NOTE: Renouncing ownership will leave the contract without an owner, thereby removing any functionality that is only available to the owner."
      },
      "transferOwnership(address)": {
        "details": "Transfers ownership of the contract to a new account (`newOwner`). Can only be called by the current owner."
      }
    },
    "version": 1
  },
  "userdoc": {
    "kind": "user",
    "methods": {},
    "version": 1
  },
  "storageLayout": {
    "storage": [
      {
        "astId": 7,
        "contract": "contracts/Obfuscator.sol:Obfuscator",
        "label": "_owner",
        "offset": 0,
        "slot": "0",
        "type": "t_address"
      },
      {
        "astId": 307,
        "contract": "contracts/Obfuscator.sol:Obfuscator",
        "label": "callers",
        "offset": 0,
        "slot": "1",
        "type": "t_mapping(t_address,t_bool)"
      }
    ],
    "types": {
      "t_address": {
        "encoding": "inplace",
        "label": "address",
        "numberOfBytes": "20"
      },
      "t_bool": {
        "encoding": "inplace",
        "label": "bool",
        "numberOfBytes": "1"
      },
      "t_mapping(t_address,t_bool)": {
        "encoding": "mapping",
        "key": "t_address",
        "label": "mapping(address => bool)",
        "numberOfBytes": "32",
        "value": "t_bool"
      }
    }
  }
}